{
  "address": "0x323193b77CDa1DA3bb4a79F5148e9eD20f6ca233",
  "abi": [
    {
      "inputs": [],
      "stateMutability": "nonpayable",
      "type": "constructor"
    },
    {
      "inputs": [],
      "name": "CannotRecoverBeforeDeadline",
      "type": "error"
    },
    {
      "inputs": [],
      "name": "CannotRedeemAfterDeadline",
      "type": "error"
    },
    {
      "inputs": [],
      "name": "CannotRedeemBeforeStartTime",
      "type": "error"
    },
    {
      "inputs": [],
      "name": "InvalidAmountToDeposit",
      "type": "error"
    },
    {
      "inputs": [],
      "name": "InvalidMerkleProof",
      "type": "error"
    },
    {
      "inputs": [],
      "name": "LeafAlreadyRedeemed",
      "type": "error"
    },
    {
      "inputs": [],
      "name": "RedeemerMustBeBeneficiary",
      "type": "error"
    },
    {
      "anonymous": false,
      "inputs": [
        {
          "indexed": false,
          "internalType": "uint8",
          "name": "version",
          "type": "uint8"
        }
      ],
      "name": "Initialized",
      "type": "event"
    },
    {
      "anonymous": false,
      "inputs": [
        {
          "indexed": false,
          "internalType": "string",
          "name": "_merkleTreeIPFSRef",
          "type": "string"
        },
        {
          "indexed": false,
          "internalType": "bytes32",
          "name": "_root",
          "type": "bytes32"
        },
        {
          "indexed": false,
          "internalType": "uint256",
          "name": "_startTime",
          "type": "uint256"
        },
        {
          "indexed": false,
          "internalType": "uint256",
          "name": "_deadline",
          "type": "uint256"
        }
      ],
      "name": "MerkleTreeSet",
      "type": "event"
    },
    {
      "anonymous": false,
      "inputs": [
        {
          "indexed": true,
          "internalType": "address",
          "name": "_account",
          "type": "address"
        },
        {
          "indexed": true,
          "internalType": "address",
          "name": "_tokenLock",
          "type": "address"
        },
        {
          "indexed": false,
          "internalType": "uint256",
          "name": "_amount",
          "type": "uint256"
        }
      ],
      "name": "TokensRedeemed",
      "type": "event"
    },
    {
      "inputs": [],
      "name": "deadline",
      "outputs": [
        {
          "internalType": "uint256",
          "name": "",
          "type": "uint256"
        }
      ],
      "stateMutability": "view",
      "type": "function"
    },
    {
      "inputs": [],
      "name": "factory",
      "outputs": [
        {
          "internalType": "address",
          "name": "",
          "type": "address"
        }
      ],
      "stateMutability": "view",
      "type": "function"
    },
    {
      "inputs": [
        {
          "internalType": "string",
          "name": "_merkleTreeIPFSRef",
          "type": "string"
        },
        {
          "internalType": "bytes32",
          "name": "_root",
          "type": "bytes32"
        },
        {
          "internalType": "uint256",
          "name": "_startTime",
          "type": "uint256"
        },
        {
          "internalType": "uint256",
          "name": "_deadline",
          "type": "uint256"
        },
        {
          "internalType": "uint256",
          "name": "_lockEndTime",
          "type": "uint256"
        },
        {
          "internalType": "uint256",
          "name": "_periods",
          "type": "uint256"
        },
        {
          "internalType": "contract IERC20Upgradeable",
          "name": "_token",
          "type": "address"
        },
        {
          "internalType": "contract ITokenLockFactory",
          "name": "_tokenLockFactory",
          "type": "address"
        }
      ],
      "name": "initialize",
      "outputs": [],
      "stateMutability": "nonpayable",
      "type": "function"
    },
    {
      "inputs": [
        {
          "internalType": "bytes32",
          "name": "",
          "type": "bytes32"
        }
      ],
      "name": "leafRedeemed",
      "outputs": [
        {
          "internalType": "bool",
          "name": "",
          "type": "bool"
        }
      ],
      "stateMutability": "view",
      "type": "function"
    },
    {
      "inputs": [],
      "name": "lockEndTime",
      "outputs": [
        {
          "internalType": "uint256",
          "name": "",
          "type": "uint256"
        }
      ],
      "stateMutability": "view",
      "type": "function"
    },
    {
      "inputs": [],
      "name": "periods",
      "outputs": [
        {
          "internalType": "uint256",
          "name": "",
          "type": "uint256"
        }
      ],
      "stateMutability": "view",
      "type": "function"
    },
    {
      "inputs": [
        {
          "internalType": "address",
          "name": "_account",
          "type": "address"
        },
        {
          "internalType": "uint256",
          "name": "_amount",
          "type": "uint256"
        },
        {
          "internalType": "bytes32[]",
          "name": "_proof",
          "type": "bytes32[]"
        },
        {
          "internalType": "contract IHATVault",
          "name": "_depositIntoVault",
          "type": "address"
        },
        {
          "internalType": "uint256",
          "name": "_amountToDeposit",
          "type": "uint256"
        },
        {
          "internalType": "uint256",
          "name": "_minShares",
          "type": "uint256"
        }
      ],
      "name": "redeem",
      "outputs": [],
      "stateMutability": "nonpayable",
      "type": "function"
    },
    {
      "inputs": [],
      "name": "root",
      "outputs": [
        {
          "internalType": "bytes32",
          "name": "",
          "type": "bytes32"
        }
      ],
      "stateMutability": "view",
      "type": "function"
    },
    {
      "inputs": [],
      "name": "startTime",
      "outputs": [
        {
          "internalType": "uint256",
          "name": "",
          "type": "uint256"
        }
      ],
      "stateMutability": "view",
      "type": "function"
    },
    {
      "inputs": [],
      "name": "token",
      "outputs": [
        {
          "internalType": "contract IERC20Upgradeable",
          "name": "",
          "type": "address"
        }
      ],
      "stateMutability": "view",
      "type": "function"
    },
    {
      "inputs": [],
      "name": "tokenLockFactory",
      "outputs": [
        {
          "internalType": "contract ITokenLockFactory",
          "name": "",
          "type": "address"
        }
      ],
      "stateMutability": "view",
      "type": "function"
    }
  ],
  "transactionHash": "0x4cba41af2949d3b1068eb1150d575eb2a854d40cac09e36d885943e918ed1b3b",
  "args": [],
  "numDeployments": 1,
  "solcInputHash": "07b5761e9547d30a09a767bcdb4e4ae2",
  "bytecode": "0x608080604052346100c1576000549060ff8260081c1661006f575060ff80821610610034575b604051610cce90816100c78239f35b60ff90811916176000557f7f26b83ff96e1f2b6a682f133852f6798a09c465da95921460cefb3847402498602060405160ff8152a138610025565b62461bcd60e51b815260206004820152602760248201527f496e697469616c697a61626c653a20636f6e747261637420697320696e697469604482015266616c697a696e6760c81b6064820152608490fd5b600080fdfe608080604052600436101561001357600080fd5b60003560e01c90816311c2aae3146109d85750806326354fca146103e657806329dcb0cf146103c857806344ec4021146103aa57806377ca370f1461037957806378e979251461035b578063a4caeb421461033d578063c45a015514610314578063eb951878146100e4578063ebf0c717146100c65763fc0c546a1461009857600080fd5b346100c15760003660031901126100c1576006546040516001600160a01b039091168152602090f35b600080fd5b346100c15760003660031901126100c1576020600154604051908152f35b346100c1576101003660031901126100c15760043567ffffffffffffffff81116100c157366023820112156100c157806004013561012181610a1e565b9161012f60405193846109fc565b81835236602483830101116100c1578160009260246020930183860137830101526001600160a01b0360c435818116926044359160243590606435908690036100c15760e4359485168095036100c1576000549360ff8560081c161596878098610307575b80156102f0575b156102945760ff1986166001176000557fdefe587a4cb3a9918331a6561067693fae13ee8a37f0dfa811f0ee8387c57c6e966102319689610282575b5084600155826002558360035560843560045560a4356005556bffffffffffffffffffffffff60a01b9182600654161760065581600754161760075533906008541617600855604051948594608086526080860190610a3a565b926020850152604084015260608301520390a161024a57005b61ff0019600054166000557f7f26b83ff96e1f2b6a682f133852f6798a09c465da95921460cefb3847402498602060405160018152a1005b61ffff191661010117600055896101d7565b60405162461bcd60e51b815260206004820152602e60248201527f496e697469616c697a61626c653a20636f6e747261637420697320616c72656160448201526d191e481a5b9a5d1a585b1a5e995960921b6064820152608490fd5b50303b15801561019b5750600160ff87161461019b565b50600160ff871610610194565b346100c15760003660031901126100c1576008546040516001600160a01b039091168152602090f35b346100c15760003660031901126100c1576020600554604051908152f35b346100c15760003660031901126100c1576020600254604051908152f35b346100c15760203660031901126100c1576004356000526009602052602060ff604060002054166040519015158152f35b346100c15760003660031901126100c1576020600454604051908152f35b346100c15760003660031901126100c1576020600354604051908152f35b346100c15760c03660031901126100c1576004356001600160a01b03811690036100c15767ffffffffffffffff604435116100c1573660236044350112156100c15767ffffffffffffffff60443560040135116100c1573660246044356004013560051b6044350101116100c1576064356001600160a01b03811681036100c157336004356001600160a01b03161415806109c3575b6109b157600254421061099f57600354421161098d57604051602081016bffffffffffffffffffffffff1960043560601b16815260243560348301526034825281606081011067ffffffffffffffff6060840111176107f35760608201604052815190209081600052600960205260ff6040600020541661097957506001548160005b6044356004013581106109325750036109205760005260096020526040600020600160ff19825416179055600090426004541160001461068657505060018060a01b0360075416602060018060a01b0360065416610164600254916000600454956005546040519788968795631112d5bd60e11b8752600487015284602487015260018060a01b036004351660448701526024356064870152608486015260a485015260c48401528160e4840152816101048401528161012484015260016101448401525af190811561067a57600091610638575b506006546008546105f7916024359184916001600160a01b039182169116610a7a565b60405160243581526001600160a01b039182169160043516907f2e33fa1fb3bd944a8fefd70eebd6988e59d5c1f348a896213c16b5c5caf0499290602090a3005b90506020813d602011610672575b81610653602093836109fc565b810103126100c157516001600160a01b03811681036100c157816105d4565b3d9150610646565b6040513d6000823e3d90fd5b6001600160a01b038116156108fb5760843590602435821180156108f3575b6108e1576006546001600160a01b03168215801561086d575b156108095760405163095ea7b360e01b60208201526001600160a01b038316602482015260448082018590528152916080830167ffffffffffffffff8111848210176107f35760009360209361071692604052610ad5565b60065460085461073691869130916001600160a01b039182169116610a7a565b60405163bc157ac160e01b81526004808201869052356001600160a01b03908116602483015260a435604483015290938492606492849291165af1801561067a576107c8575b506006546008546001600160a01b0390811692602435908103929091169082116107b2576107ad9260043591610a7a565b6105f7565b634e487b7160e01b600052601160045260246000fd5b602090813d83116107ec575b6107de81836109fc565b810103126100c1578261077c565b503d6107d4565b634e487b7160e01b600052604160045260246000fd5b60405162461bcd60e51b815260206004820152603660248201527f5361666545524332303a20617070726f76652066726f6d206e6f6e2d7a65726f60448201527520746f206e6f6e2d7a65726f20616c6c6f77616e636560501b6064820152608490fd5b50604051636eb1769f60e11b81523060048201526001600160a01b0383166024820152602081604481855afa90811561067a576000916108af575b50156106be565b90506020813d6020116108d9575b816108ca602093836109fc565b810103126100c15751856108a8565b3d91506108bd565b6040516348e35d0160e11b8152600490fd5b5081156106a5565b506006546008546107ad9160243591600435916001600160a01b039182169116610a7a565b60405163582f497d60e11b8152600490fd5b9060248260051b604435010135908181106000146109685760005260205260406000205b9060001981146107b2576001016104ff565b906000526020526040600020610956565b606060049163047c6f5360e11b8282015201fd5b60405163fa06829960e01b8152600490fd5b604051638d1f82d760e01b8152600490fd5b604051635dec086160e01b8152600490fd5b506008546001600160a01b031633141561047c565b346100c15760003660031901126100c1576007546001600160a01b03168152602090f35b90601f8019910116810190811067ffffffffffffffff8211176107f357604052565b67ffffffffffffffff81116107f357601f01601f191660200190565b919082519283825260005b848110610a66575050826000602080949584010152601f8019910116010190565b602081830181015184830182015201610a45565b6040516323b872dd60e01b60208201526001600160a01b03928316602482015292909116604483015260648083019390935291815260a081019181831067ffffffffffffffff8411176107f357610ad392604052610ad5565b565b60018060a01b031690604051604081019080821067ffffffffffffffff8311176107f357610b65916040526020938482527f5361666545524332303a206c6f772d6c6576656c2063616c6c206661696c6564858301526000808587829751910182855af13d15610bf7573d91610b4a83610a1e565b92610b5860405194856109fc565b83523d868885013e610bfb565b805180610b73575b50505050565b81849181010312610bf35782015190811591821503610bf05750610b9957808080610b6d565b6084906040519062461bcd60e51b82526004820152602a60248201527f5361666545524332303a204552433230206f7065726174696f6e20646964206e6044820152691bdd081cdd58d8d9595960b21b6064820152fd5b80fd5b5080fd5b6060915b91929015610c5d5750815115610c0f575090565b3b15610c185790565b60405162461bcd60e51b815260206004820152601d60248201527f416464726573733a2063616c6c20746f206e6f6e2d636f6e74726163740000006044820152606490fd5b825190915015610c705750805190602001fd5b60405162461bcd60e51b815260206004820152908190610c94906024830190610a3a565b0390fdfea2646970667358221220667c02ba21ef236aee7992c469dea3748e27376fd22207d8d925f49891722ad364736f6c63430008100033",
  "devdoc": {
    "kind": "dev",
    "methods": {
      "initialize(string,bytes32,uint256,uint256,uint256,uint256,address,address)": {
        "params": {
          "_deadline": "end time to redeem from the contract",
          "_lockEndTime": "end time for the token lock contract. If this date is in the past, the tokens will be transferred directly to the user and no token lock will be created",
          "_merkleTreeIPFSRef": "new merkle tree ipfs reference.",
          "_periods": "number of periods of the token lock contract (if exists)",
          "_root": "new merkle tree root to use for verifying airdrop data.",
          "_startTime": "start of the redeem period and of the token lock (if exists)",
          "_token": "the token to be airdropped",
          "_tokenLockFactory": "the token lock factory to use to deploy the token locks"
        }
      }
    },
    "version": 1
  },
  "userdoc": {
    "kind": "user",
    "methods": {
      "initialize(string,bytes32,uint256,uint256,uint256,uint256,address,address)": {
        "notice": "Initialize a HATAirdrop instance"
      }
    },
    "version": 1
  },
  "storageLayout": {
    "storage": [
      {
        "astId": 1190,
        "contract": "contracts/tge/HATAirdrop.sol:HATAirdrop",
        "label": "_initialized",
        "offset": 0,
        "slot": "0",
        "type": "t_uint8"
      },
      {
        "astId": 1193,
        "contract": "contracts/tge/HATAirdrop.sol:HATAirdrop",
        "label": "_initializing",
        "offset": 1,
        "slot": "0",
        "type": "t_bool"
      },
      {
        "astId": 28385,
        "contract": "contracts/tge/HATAirdrop.sol:HATAirdrop",
        "label": "root",
        "offset": 0,
        "slot": "1",
        "type": "t_bytes32"
      },
      {
        "astId": 28387,
        "contract": "contracts/tge/HATAirdrop.sol:HATAirdrop",
        "label": "startTime",
        "offset": 0,
        "slot": "2",
        "type": "t_uint256"
      },
      {
        "astId": 28389,
        "contract": "contracts/tge/HATAirdrop.sol:HATAirdrop",
        "label": "deadline",
        "offset": 0,
        "slot": "3",
        "type": "t_uint256"
      },
      {
        "astId": 28391,
        "contract": "contracts/tge/HATAirdrop.sol:HATAirdrop",
        "label": "lockEndTime",
        "offset": 0,
        "slot": "4",
        "type": "t_uint256"
      },
      {
        "astId": 28393,
        "contract": "contracts/tge/HATAirdrop.sol:HATAirdrop",
        "label": "periods",
        "offset": 0,
        "slot": "5",
        "type": "t_uint256"
      },
      {
        "astId": 28396,
        "contract": "contracts/tge/HATAirdrop.sol:HATAirdrop",
        "label": "token",
        "offset": 0,
        "slot": "6",
        "type": "t_contract(IERC20Upgradeable)2115"
      },
      {
        "astId": 28399,
        "contract": "contracts/tge/HATAirdrop.sol:HATAirdrop",
        "label": "tokenLockFactory",
        "offset": 0,
        "slot": "7",
        "type": "t_contract(ITokenLockFactory)29783"
      },
      {
        "astId": 28401,
        "contract": "contracts/tge/HATAirdrop.sol:HATAirdrop",
        "label": "factory",
        "offset": 0,
        "slot": "8",
        "type": "t_address"
      },
      {
        "astId": 28405,
        "contract": "contracts/tge/HATAirdrop.sol:HATAirdrop",
        "label": "leafRedeemed",
        "offset": 0,
        "slot": "9",
        "type": "t_mapping(t_bytes32,t_bool)"
      }
    ],
    "types": {
      "t_address": {
        "encoding": "inplace",
        "label": "address",
        "numberOfBytes": "20"
      },
      "t_bool": {
        "encoding": "inplace",
        "label": "bool",
        "numberOfBytes": "1"
      },
      "t_bytes32": {
        "encoding": "inplace",
        "label": "bytes32",
        "numberOfBytes": "32"
      },
      "t_contract(IERC20Upgradeable)2115": {
        "encoding": "inplace",
        "label": "contract IERC20Upgradeable",
        "numberOfBytes": "20"
      },
      "t_contract(ITokenLockFactory)29783": {
        "encoding": "inplace",
        "label": "contract ITokenLockFactory",
        "numberOfBytes": "20"
      },
      "t_mapping(t_bytes32,t_bool)": {
        "encoding": "mapping",
        "key": "t_bytes32",
        "label": "mapping(bytes32 => bool)",
        "numberOfBytes": "32",
        "value": "t_bool"
      },
      "t_uint256": {
        "encoding": "inplace",
        "label": "uint256",
        "numberOfBytes": "32"
      },
      "t_uint8": {
        "encoding": "inplace",
        "label": "uint8",
        "numberOfBytes": "1"
      }
    }
  }
}