{
  "address": "0xf4153be482582e4cD542E2214745a5D3cE5db128",
  "abi": [
    {
      "inputs": [
        {
          "internalType": "contract IHATToken",
          "name": "_HAT",
          "type": "address"
        }
      ],
      "stateMutability": "nonpayable",
      "type": "constructor"
    },
    {
      "inputs": [],
      "name": "ContractIsNotHATAirdrop",
      "type": "error"
    },
    {
      "inputs": [],
      "name": "HATAirdropInitializationFailed",
      "type": "error"
    },
    {
      "inputs": [],
      "name": "RedeemDataArraysLengthMismatch",
      "type": "error"
    },
    {
      "anonymous": false,
      "inputs": [
        {
          "indexed": true,
          "internalType": "address",
          "name": "_hatAirdrop",
          "type": "address"
        },
        {
          "indexed": false,
          "internalType": "bytes",
          "name": "_initData",
          "type": "bytes"
        },
        {
          "indexed": false,
          "internalType": "contract IERC20",
          "name": "_token",
          "type": "address"
        },
        {
          "indexed": false,
          "internalType": "uint256",
          "name": "_totalAmount",
          "type": "uint256"
        }
      ],
      "name": "HATAirdropCreated",
      "type": "event"
    },
    {
      "anonymous": false,
      "inputs": [
        {
          "indexed": true,
          "internalType": "address",
          "name": "previousOwner",
          "type": "address"
        },
        {
          "indexed": true,
          "internalType": "address",
          "name": "newOwner",
          "type": "address"
        }
      ],
      "name": "OwnershipTransferred",
      "type": "event"
    },
    {
      "anonymous": false,
      "inputs": [
        {
          "indexed": true,
          "internalType": "address",
          "name": "_owner",
          "type": "address"
        },
        {
          "indexed": false,
          "internalType": "uint256",
          "name": "_amount",
          "type": "uint256"
        }
      ],
      "name": "TokensWithdrawn",
      "type": "event"
    },
    {
      "inputs": [],
      "name": "HAT",
      "outputs": [
        {
          "internalType": "contract IHATToken",
          "name": "",
          "type": "address"
        }
      ],
      "stateMutability": "view",
      "type": "function"
    },
    {
      "inputs": [
        {
          "internalType": "address",
          "name": "_implementation",
          "type": "address"
        },
        {
          "internalType": "bytes",
          "name": "_initData",
          "type": "bytes"
        },
        {
          "internalType": "contract IERC20",
          "name": "_token",
          "type": "address"
        },
        {
          "internalType": "uint256",
          "name": "_totalAmount",
          "type": "uint256"
        }
      ],
      "name": "createHATAirdrop",
      "outputs": [
        {
          "internalType": "address",
          "name": "result",
          "type": "address"
        }
      ],
      "stateMutability": "nonpayable",
      "type": "function"
    },
    {
      "inputs": [
        {
          "internalType": "address",
          "name": "",
          "type": "address"
        }
      ],
      "name": "isAirdrop",
      "outputs": [
        {
          "internalType": "bool",
          "name": "",
          "type": "bool"
        }
      ],
      "stateMutability": "view",
      "type": "function"
    },
    {
      "inputs": [],
      "name": "owner",
      "outputs": [
        {
          "internalType": "address",
          "name": "",
          "type": "address"
        }
      ],
      "stateMutability": "view",
      "type": "function"
    },
    {
      "inputs": [
        {
          "internalType": "address",
          "name": "_implementation",
          "type": "address"
        },
        {
          "internalType": "bytes",
          "name": "_initData",
          "type": "bytes"
        }
      ],
      "name": "predictHATAirdropAddress",
      "outputs": [
        {
          "internalType": "address",
          "name": "",
          "type": "address"
        }
      ],
      "stateMutability": "view",
      "type": "function"
    },
    {
      "inputs": [
        {
          "internalType": "contract IHATAirdrop[]",
          "name": "_airdrops",
          "type": "address[]"
        },
        {
          "internalType": "uint256[]",
          "name": "_amounts",
          "type": "uint256[]"
        },
        {
          "internalType": "bytes32[][]",
          "name": "_proofs",
          "type": "bytes32[][]"
        },
        {
          "internalType": "contract IHATVault[]",
          "name": "_depositIntoVaults",
          "type": "address[]"
        },
        {
          "internalType": "uint256[]",
          "name": "_amountsToDeposit",
          "type": "uint256[]"
        },
        {
          "internalType": "uint256[]",
          "name": "_minShares",
          "type": "uint256[]"
        },
        {
          "internalType": "address",
          "name": "_delegatee",
          "type": "address"
        },
        {
          "internalType": "uint256",
          "name": "_nonce",
          "type": "uint256"
        },
        {
          "internalType": "uint256",
          "name": "_expiry",
          "type": "uint256"
        },
        {
          "internalType": "uint8",
          "name": "_v",
          "type": "uint8"
        },
        {
          "internalType": "bytes32",
          "name": "_r",
          "type": "bytes32"
        },
        {
          "internalType": "bytes32",
          "name": "_s",
          "type": "bytes32"
        }
      ],
      "name": "redeemAndDelegateMultipleAirdrops",
      "outputs": [],
      "stateMutability": "nonpayable",
      "type": "function"
    },
    {
      "inputs": [
        {
          "internalType": "contract IHATAirdrop[]",
          "name": "_airdrops",
          "type": "address[]"
        },
        {
          "internalType": "uint256[]",
          "name": "_amounts",
          "type": "uint256[]"
        },
        {
          "internalType": "bytes32[][]",
          "name": "_proofs",
          "type": "bytes32[][]"
        },
        {
          "internalType": "contract IHATVault[]",
          "name": "_depositIntoVaults",
          "type": "address[]"
        },
        {
          "internalType": "uint256[]",
          "name": "_amountsToDeposit",
          "type": "uint256[]"
        },
        {
          "internalType": "uint256[]",
          "name": "_minShares",
          "type": "uint256[]"
        }
      ],
      "name": "redeemMultipleAirdrops",
      "outputs": [],
      "stateMutability": "nonpayable",
      "type": "function"
    },
    {
      "inputs": [],
      "name": "renounceOwnership",
      "outputs": [],
      "stateMutability": "nonpayable",
      "type": "function"
    },
    {
      "inputs": [
        {
          "internalType": "address",
          "name": "newOwner",
          "type": "address"
        }
      ],
      "name": "transferOwnership",
      "outputs": [],
      "stateMutability": "nonpayable",
      "type": "function"
    },
    {
      "inputs": [
        {
          "internalType": "contract IERC20",
          "name": "_token",
          "type": "address"
        },
        {
          "internalType": "uint256",
          "name": "_amount",
          "type": "uint256"
        }
      ],
      "name": "withdrawTokens",
      "outputs": [],
      "stateMutability": "nonpayable",
      "type": "function"
    }
  ],
  "transactionHash": "0x2eda9078b8f13bd1ce633cc45c9b1ef7925c1b4f1db38693d38fdf69544c1f90",
  "args": [
    "0x4D22e37Eb4d71D1acc5f4889a65936D2a44A2f15"
  ],
  "numDeployments": 1,
  "solcInputHash": "07b5761e9547d30a09a767bcdb4e4ae2",
  "bytecode": "0x6080346100a757601f610f9438819003918201601f19168301916001600160401b038311848410176100ac578084926020946040528339810103126100a757516001600160a01b0390818116908190036100a75760005460018060a01b0319903382821617600055604051933391167f8be0079c531659141344cd1fd0a4f28419497f9722a3daafe3b4186f6b6457e0600086a36002541617600255610ed190816100c38239f35b600080fd5b634e487b7160e01b600052604160045260246000fdfe6040608081526004908136101561001557600080fd5b600091823560e01c806306b091f91461084c5780631cd8dccc146107995780633449a86514610770578063715018a61461071357806374acb5d6146106d55780638da5cb5b146106ad578063a2d93c66146103e2578063e905cfa514610235578063f2fde38b146101695763fa0226d21461008f57600080fd5b346101655760c03660031901126101655767ffffffffffffffff8135818111610161576100bf9036908401610917565b9160243581811161015d576100d79036908601610917565b604492919235828111610159576100f19036908801610917565b6064929192358481116101555761010b9036908a01610917565b939092608435868111610151576101259036908c01610917565b97909660a43590811161014d5761014a9b61014291369101610917565b9a9099610c2f565b51f35b8d80fd5b8c80fd5b8a80fd5b8880fd5b8680fd5b8480fd5b8280fd5b5034610165576020366003190112610165576101836108ce565b61018b610948565b6001600160a01b039081169182156101e3575060005492826bffffffffffffffffffffffff60a01b8516176000555192167f8be0079c531659141344cd1fd0a4f28419497f9722a3daafe3b4186f6b6457e0600084a3f35b608490602085519162461bcd60e51b8352820152602660248201527f4f776e61626c653a206e6577206f776e657220697320746865207a65726f206160448201526564647265737360d01b6064820152fd5b508290346103de576101803660031901126103de5767ffffffffffffffff9080358281116103da5761026a9036908301610917565b6024939193358281116103bf576102849036908501610917565b906044358481116103d65761029c9036908701610917565b906064358681116103d2576102b49036908901610917565b906084358881116103ce576102cc9036908b01610917565b94909360a4358a811161014d576102e69036908d01610917565b98909760018060a01b039a8b60c435169e8f60c435036103c9579060ff9c9b9a999897969594939291610124359d8e16809e036103c357906103319b9a999897969594939291610c2f565b6002541693843b156103bf579060c48692838951978894859363061e6d2960e51b85528985015260e435602485015261010435604485015260648401526101443560848401526101643560a48401525af180156103b55761039157838551f35b82116103a257508252828080838551f35b634e487b7160e01b835260419052602482fd5b85513d86823e3d90fd5b8580fd5b50508f80fd5b508f80fd5b8b80fd5b8980fd5b8780fd5b8380fd5b5080fd5b509034610165576080366003190112610165576103fd6108ce565b9260243567ffffffffffffffff81116103de5761041d90369085016108e9565b91604435906001600160a01b0390818316908184036106aa5760643592610442610948565b61044d368888610e64565b996e5af43d82803e903d91602b57fd5bf38b516020809d012091763d602d80600a3d3981f3363d3d373d3d3d363d7300000062ffffff8260881c1617855260781b178b526037600984f59081169889156106675782808a518a8a8237808b8101838152039082865af16104be610af1565b50156106595789835260018b52888320600160ff19825416179055841580156105ec575b1561058a5750875163095ea7b360e01b8b8201526001600160a01b039190911660248201526044808201859052815288967fc033fb47464ab81c00f219bee8feaa9af0c7739d248167752bd7add6cfcd603c9690956080959194601f1994601f9489949361055b91906105566064836109a0565b6109f4565b8b51988997606089528160608a0152898901378784880101528c8601528985015201168101030190a251908152f35b885162461bcd60e51b81529081018b9052603660248201527f5361666545524332303a20617070726f76652066726f6d206e6f6e2d7a65726f60448201527520746f206e6f6e2d7a65726f20616c6c6f77616e636560501b6064820152608490fd5b508851636eb1769f60e11b81523082820152602481018b90528b81604481885afa90811561064f578491610622575b50156104e2565b90508b81813d8311610648575b61063981836109a0565b810103126103da57513861061b565b503d61062f565b8a513d86823e3d90fd5b8851631430c5c360e01b8152fd5b885162461bcd60e51b81529081018b9052601760248201527f455243313136373a2063726561746532206661696c65640000000000000000006044820152606490fd5b80fd5b5050346103de57816003193601126103de57905490516001600160a01b039091168152602090f35b5050346103de5760203660031901126103de5760209160ff9082906001600160a01b036107006108ce565b1681526001855220541690519015158152f35b5050346103de57816003193601126103de5761072d610948565b81546001600160a01b03198116835590519082906001600160a01b03167f8be0079c531659141344cd1fd0a4f28419497f9722a3daafe3b4186f6b6457e08284a3f35b5050346103de57816003193601126103de5760025490516001600160a01b039091168152602090f35b50346101655781600319360112610165576107b26108ce565b926024359067ffffffffffffffff82116106aa57506020936107e56107de6055946043943691016108e9565b3691610e64565b80519086012084513060388201526f5af43d82803e903d91602b57fd5bf3ff60248201526014810192909252733d602d80600a3d3981f3363d3d373d3d3d363d73825260588201526037600c8201206078820152012090516001600160a01b039091168152f35b5050346103de57806003193601126103de576108666108ce565b6108a060243591610875610948565b835163a9059cbb60e01b602082015233602482015260448082018590528152906105566064836109a0565b81519081527f6352c5382c4a4578e712449ca65e83cdb392d045dfcf1cad9615189db2da244b60203392a251f35b600435906001600160a01b03821682036108e457565b600080fd5b9181601f840112156108e45782359167ffffffffffffffff83116108e457602083818601950101116108e457565b9181601f840112156108e45782359167ffffffffffffffff83116108e4576020808501948460051b0101116108e457565b6000546001600160a01b0316330361095c57565b606460405162461bcd60e51b815260206004820152602060248201527f4f776e61626c653a2063616c6c6572206973206e6f7420746865206f776e65726044820152fd5b90601f8019910116810190811067ffffffffffffffff8211176109c257604052565b634e487b7160e01b600052604160045260246000fd5b67ffffffffffffffff81116109c257601f01601f191660200190565b60018060a01b031690604051604081019080821067ffffffffffffffff8311176109c257610a66916040526020938482527f5361666545524332303a206c6f772d6c6576656c2063616c6c206661696c6564858301526000808587829751910182855af1610a60610af1565b91610b21565b805180610a74575b50505050565b818491810103126103de57820151908115918215036106aa5750610a9a57808080610a6e565b6084906040519062461bcd60e51b82526004820152602a60248201527f5361666545524332303a204552433230206f7065726174696f6e20646964206e6044820152691bdd081cdd58d8d9595960b21b6064820152fd5b3d15610b1c573d90610b02826109d8565b91610b1060405193846109a0565b82523d6000602084013e565b606090565b91929015610b835750815115610b35575090565b3b15610b3e5790565b60405162461bcd60e51b815260206004820152601d60248201527f416464726573733a2063616c6c20746f206e6f6e2d636f6e74726163740000006044820152606490fd5b825190915015610b965750805190602001fd5b6040519062461bcd60e51b82528160208060048301528251908160248401526000935b828510610bdc575050604492506000838284010152601f80199101168101030190fd5b8481018201518686016044015293810193859350610bb9565b9190811015610c055760051b0190565b634e487b7160e01b600052603260045260246000fd5b356001600160a01b03811681036108e45790565b909a9692999598949a979391978a8114801590610e5a575b8015610e50575b8015610e46575b8015610e3c575b610e2a5760005b818110610c795750505050505050505050505050565b6001600160a01b03610c94610c8f838587610bf5565b610c1b565b16600052600160205260ff6040600020541615610e1857898d610ccf838f6001600160a01b03610cc8610c8f848a8c610bf5565b1694610bf5565b3590831015610c0557601e19863603018360051b87013512156108e4578260051b86013586019167ffffffffffffffff8335116108e457823560051b360360208401136108e457610d22848f8a90610bf5565b356001600160a01b038116908190036108e4578b610d4f868f610d488f8f908491610bf5565b3593610bf5565b3592803b156108e4576040519563131aa7e560e11b875260049433868901526024968789015260c06044890152813560c489015260018060fb1b038235116108e457600094888095938793829560e494833560051b60208501878701376064850152608484015260a48301523560051b81010301925af18015610e0c57610ddc575b505050600101610c63565b67ffffffffffffffff8311610df957505060405260013880610dd1565b604190634e487b7160e01b600052526000fd5b6040513d6000823e3d90fd5b60405163190d841f60e01b8152600490fd5b6040516368e0b0f960e11b8152600490fd5b5087811415610c5c565b5085811415610c55565b5083811415610c4e565b508b811415610c47565b929192610e70826109d8565b91610e7e60405193846109a0565b8294818452818301116108e457828160209384600096013701015256fea2646970667358221220c2ef36387df1396ade1c4a865d515bc183800887605736e38e41b84c28d4f50e64736f6c63430008100033",
  "devdoc": {
    "kind": "dev",
    "methods": {
      "owner()": {
        "details": "Returns the address of the current owner."
      },
      "renounceOwnership()": {
        "details": "Leaves the contract without owner. It will not be possible to call `onlyOwner` functions anymore. Can only be called by the current owner. NOTE: Renouncing ownership will leave the contract without an owner, thereby removing any functionality that is only available to the owner."
      },
      "transferOwnership(address)": {
        "details": "Transfers ownership of the contract to a new account (`newOwner`). Can only be called by the current owner."
      }
    },
    "version": 1
  },
  "userdoc": {
    "kind": "user",
    "methods": {},
    "version": 1
  },
  "storageLayout": {
    "storage": [
      {
        "astId": 5253,
        "contract": "contracts/tge/HATAirdropFactory.sol:HATAirdropFactory",
        "label": "_owner",
        "offset": 0,
        "slot": "0",
        "type": "t_address"
      },
      {
        "astId": 28753,
        "contract": "contracts/tge/HATAirdropFactory.sol:HATAirdropFactory",
        "label": "isAirdrop",
        "offset": 0,
        "slot": "1",
        "type": "t_mapping(t_address,t_bool)"
      },
      {
        "astId": 28756,
        "contract": "contracts/tge/HATAirdropFactory.sol:HATAirdropFactory",
        "label": "HAT",
        "offset": 0,
        "slot": "2",
        "type": "t_contract(IHATToken)23655"
      }
    ],
    "types": {
      "t_address": {
        "encoding": "inplace",
        "label": "address",
        "numberOfBytes": "20"
      },
      "t_bool": {
        "encoding": "inplace",
        "label": "bool",
        "numberOfBytes": "1"
      },
      "t_contract(IHATToken)23655": {
        "encoding": "inplace",
        "label": "contract IHATToken",
        "numberOfBytes": "20"
      },
      "t_mapping(t_address,t_bool)": {
        "encoding": "mapping",
        "key": "t_address",
        "label": "mapping(address => bool)",
        "numberOfBytes": "32",
        "value": "t_bool"
      }
    }
  }
}